:100000000C9462000C948A000C948A000C948A0070
:100010000C948A000C948A000C948A000C948A0038
:100020000C948A000C948A000C948A000C94A70605
:100030000C948A000C948A000C948A000C948A0018
:100040000C945D060C948A000C948A000C948A002F
:100050000C948A000C948A000C948A000C948A00F8
:100060000C948A000C948A000000000024002700F1
:100070002A0000000000250028002B0000000000DE
:1000800023002600290004040404040404040202DA
:100090000202020203030303030301020408102007
:1000A0004080010204081020010204081020000012
:1000B0000008000201000003040700000000000027
:1000C0000000730A11241FBECFEFD8E0DEBFCDBF02
:1000D00011E0A0E0B1E0E6E9FBE102C005900D927D
:1000E000AA3CB107D9F722E0AAECB1E001C01D9209
:1000F000A339B207E1F710E0C2E6D0E004C02197CF
:10010000FE010E94C30BC136D107C9F70E946307E5
:100110000C94C90D0C9400008F929F92AF92BF92E5
:10012000FF920F931F93CF93DF93F09074022BE015
:100130002F1508F44CC02091760208E512E0021B4E
:10014000110927FD1395000F111F000F111F20919A
:100150007502C8E8D0E0C21BD10927FDD395CC0FAA
:10016000DD1FCC0FDD1F4E010D2E000CAA08BB08B1
:100170009801012E000C440B550B281939094A0926
:100180005B09DC010E94470B24EB30E040E050E0CB
:100190000E941D0B820E931EA41EB51E8C169D067A
:1001A0002CF0E801801691060CF4E4012297CC0FA4
:1001B000DD1F2FB7F8948F2D90E0FC01EE0FFF1F8D
:1001C000E80FF91FE05BFD4FD283C1832FBFDF91A2
:1001D000CF911F910F91FF90BF90AF909F908F9004
:1001E000089596E0899FD0011124AF51BE4F90969B
:1001F0007C936E935F9791E091969C939197E09199
:100200004E02F0914F0290914D02992339F03097B0
:1002100051F0811108C08091FD010994309719F0C7
:100220005C968C91FACF0895CF92DF92EF92FF9275
:100230000F931F9396E0899FF0011124EF51FE4F19
:1002400011A2278D30A12130310551F178F02230F3
:10025000310509F451C02330310509F452C01F9112
:100260000F91FF90EF90DF90CF9008956623B9F340
:1002700061E070E00E94F1002FB7F8948091DD01F9
:100280009091DE01A091DF01B091E0012FBF80933A
:10029000390290933A02A0933B02B0933C02DFCF25
:1002A0009FB7F894C090DD01D090DE01E090DF01AF
:1002B000F090E0019FBF0091390210913A02209125
:1002C0003B0230913C02C01AD10AE20AF30A0091C3
:1002D0004B0210914C0230E020E00C151D052E055C
:1002E0003F0550F462E070E01F910F91FF90EF9096
:1002F000DF90CF900C94F1006111B1CF63E070E01A
:10030000F3CF70E060E0F0CF0895AF92BF92CF924C
:10031000DF92EF92FF920F931F93CF93DF936C01C5
:100320007B018B01040F151FEB015E01AE18BF08A6
:10033000C017D10759F06991D601ED91FC91019058
:10034000F081E02DC6010995892B79F7C501DF9170
:10035000CF911F910F91FF90EF90DF90CF90BF90C2
:10036000AF900895833081F028F4813099F0823085
:10037000A9F008958730A9F08830C9F08430B1F42D
:10038000809180008F7D03C0809180008F77809363
:100390008000089584B58F7784BD089584B58F7DDE
:1003A000FBCF8091B0008F778093B000089580914B
:1003B000B0008F7DF9CFCF93DF93282F30E0F90184
:1003C000E255FF4F8491F901E656FF4FD491F901B0
:1003D000EA57FF4FC491CC23A1F081110E94B201D2
:1003E000EC2FF0E0EE0FFF1FE458FF4FA591B49102
:1003F000EC91ED2381E090E009F480E0DF91CF9172
:10040000089580E090E0FACF862F0C94DB011F93D3
:10041000CF93DF93282F30E0F901E255FF4F84910D
:10042000F901E656FF4FD491F901EA57FF4FC49105
:10043000CC23A9F0162F81110E94B201EC2FF0E01D
:10044000EE0FFF1FEE58FF4FA591B4918FB7F894B0
:10045000EC91111108C0D095DE23DC938FBFDF91A2
:10046000CF911F910895DE2BF8CF862F642F0C9427
:100470000702CF93DF9390E0FC01E656FF4F2491F3
:100480008A579F4FFC0184918823C9F090E0880F20
:10049000991FFC01E859FF4FA591B491FC01EE585A
:1004A000FF4FC591D49161110DC09FB7F8948C9105
:1004B000209582238C938881282328839FBFDF91F6
:1004C000CF910895623051F49FB7F8943C91822FF8
:1004D000809583238C93E8812E2BEFCF8FB7F894F0
:1004E000EC912E2B2C938FBFEACF862F642F0C9488
:1004F00039026F927F928F929F92AF92BF92CF926A
:10050000DF92EF92FF920F931F93CF93DF9381E0DF
:1005100080934D028FB7F8944091DD015091DE0138
:100520006091DF017091E0018FBF80913D02909159
:100530003E02A0913F02B0914002481B590B6A0B4A
:100540007B0B8091490290914A02B0E0A0E08417B1
:100550009507A607B70708F01DC1C0E080914702C4
:10056000C81760F4E0914302F0914402EC0FF11DD2
:1005700062E080810E943902CF5FF0CF712C812C24
:10058000912C5401839480914802781608F05FC042
:10059000072D10E0E0914502F0914602E00FF11FB7
:1005A00061E080810E943902E0914502F0914602AB
:1005B000E00FF11F60E080810E940702D501C401B5
:1005C000072C04C0880F991FAA1FBB1F0A94D2F7DB
:1005D0006C017C01E094F094612C809147026816D4
:1005E000F8F4C62DD0E0E0914302F0914402EC0F04
:1005F000FD1F80810E94DB012496CC0FDD1FCF51AF
:10060000DE4F892B41F4888199818C299D2999831A
:1006100088836394E2CF888199818E219F21F7CFCF
:10062000E0914502F0914602E00FF11F61E0808108
:100630000E9407028091450290914602080F191FFF
:1006400060E0F80180810E94390273949CCFC1EE72
:10065000D1E0FE018FEF9FEF278D30A1232B21F4F6
:10066000148E968F858F11A2369622E0ED31F20717
:1006700099F7F12C96E0D92E80914702F81608F0F0
:1006800050C0E12C0F2D10E0000F111F07511E4F1D
:1006900020914802E21608F042C0F80160817181A1
:1006A0000E2C02C0769567950A94E2F7F29E9001AF
:1006B00011242E0D311DE1EEF1E080E0458D568DC7
:1006C0002417350709F46AC08F5F36968A30B1F770
:1006D00060FF23C0E1EEF1E090E080E0448D411145
:1006E00017C0E0914102F0914202E20FF31F4081F6
:1006F000D89EF001D99EF00D1124EF51FE4F448F8A
:10070000368F258F10A2178E61E00E94140105C05C
:10071000019636968A30910509F7E394B9CFF394A0
:10072000ABCF80E099A19111892F2696F2E0CD31CF
:10073000DF07C1F79FB7F8944091DD015091DE01CA
:100740006091DF017091E0019FBF40933D025093A3
:100750003E0260933F02709340028823D9F080915B
:1007600002028823B9F08091000290910102019762
:1007700089F48091FD01DF91CF911F910F91FF903E
:10078000EF90DF90CF90BF90AF909F908F907F9031
:100790006F90089510924D0280E0EDCF6170B5CF5B
:1007A0003FB7F8948091CD019091CE01A091CF01F7
:1007B000B091D00126B5A89B05C02F3F19F0019636
:1007C000A11DB11D3FBFBA2FA92F982F8827BC01AB
:1007D000CD01620F711D811D911D42E0660F771FD3
:1007E000881F991F4A95D1F708958F929F92AF92D3
:1007F000BF92CF92DF92EF92FF924B015C010E9479
:10080000D0036B017C010E94D0036C197D098E0915
:100810009F09683E734081059105A8F321E0821A83
:100820009108A108B10888EEC80E83E0D81EE11C2B
:10083000F11C81149104A104B10429F7FF90EF90F9
:10084000DF90CF90BF90AF909F908F900895892BAD
:1008500079F41092800082E08093810010928500EC
:1008600010928400B19A80916F00826080936F0033
:100870000895809174028C3008F043C061E08AE0F2
:100880000E94390280917402282F30E0F901EE0FA6
:10089000FF1FE20FF31FE05BFD4F9081907C9A6099
:1008A000908310927502109276022CE0622F0E94C3
:1008B000B70B829FB001112430E020E0AB01420F62
:1008C000531FFA01EE0FFF1FE40FF51FE05BFD4F12
:1008D000908196FD08C02F5F3F4F2C30310571F796
:1008E00090E00E942704E09174028E2F90E0FC01BA
:1008F000EE0FFF1FE80FF91FE05BFD4F8081806462
:10090000808380917402089590E080E0089561E012
:1009100089E00E94070260E088E00E94070268EE1A
:1009200073E080E090E00E94F503809174028C30C7
:1009300008F043C061E08AE00E94390280917402AD
:10094000282F30E0F901EE0FFF1FE20FF31FE05BED
:10095000FD4F9081907C9A60908310927502109266
:1009600076022CE0622F0E94B70B829FB001112407
:1009700030E020E0AB01420F531FFA01EE0FFF1FE2
:10098000E40FF51FE05BFD4F908196FD08C02F5FDF
:100990003F4F2C30310571F790E00E942704E09121
:1009A00074028E2F90E0FC01EE0FFF1FE80FF91F7D
:1009B000E05BFD4F8081806480838AE090E00E944C
:1009C0008C0068EE73E080E090E00E94F503E09117
:1009D00074028E2F90E0FC01EE0FFF1FE80FF91F4D
:1009E000E05BFD4F80818F7B80830895FC01019047
:1009F0000020E9F73197AF01481B590BBC0187E78D
:100A000092E00C948501CF93DF93EC0160E08E813E
:100A10000E94070261E08E810E94070260E08E81E1
:100A20000E9407028BE891E00197F1F7DF91CF91E7
:100A30000895CF92DF92EF92FF920F931F93CF937F
:100A4000DF936C017C0187E0E80EF11CD0E0C0E090
:100A5000062F10E0B8010C2E02C0759567950A9418
:100A6000E2F76170F70181917F010E9407022196F0
:100A7000C430D10579F7C601DF91CF911F910F9155
:100A8000FF90EF90DF90CF900C940305CF92DF9210
:100A9000EF92FF920F931F93CF93DF93EC01F62E0B
:100AA000642F8C810E9407028D818F3F19F060E0D6
:100AB0000E9407020F2D10E08F8584FF25C06E0174
:100AC00087E0C80ED11CF12CE12CB8010E2C02C01D
:100AD000759567950A94E2F76170F60181916F014F
:100AE0000E940702FFEFEF1AFF0A88E0E816F10400
:100AF00061F7CE01DF91CF911F910F91FF90EF90A1
:100B0000DF90CF900C940305B80184E0759567954C
:100B10008A95E1F7CE010E9419056F2DCE01DF9174
:100B2000CF911F910F91FF90EF90DF90CF900C9499
:100B3000190540E0682F87E792E00C94460581E0B4
:100B40000E9499058BE39FE10197F1F70895CF93F8
:100B5000DF93823029F49091860298609093860208
:100B600080938A0210928B0280E480938C0280E151
:100B700080938D0280E580938E0261E080917B02FC
:100B80000E94390280917C028F3F19F061E00E943F
:100B9000390261E080917D020E943902C7E7D2E00C
:100BA0009E01275732408091860284FD0BC084E06D
:100BB00090E021962817390744F461E08E810E9465
:100BC0003902EECF88E090E0F4CF8BE39DE001970F
:100BD000F1F760E080917B020E94070260E0809163
:100BE0007D020E94070280917C028F3F19F060E035
:100BF0000E9407028091860284FD34C063E087E78B
:100C000092E00E941905CBE4D6E4CE010197F1F7FA
:100C100063E087E792E00E9419052197F1F763E00E
:100C200087E792E00E94190583E592E00197F1F7CA
:100C300062E087E792E00E94190580918602806257
:100C40000E94990584E0809387028CE00E949905B8
:100C50000E949F0582E08093880286E0DF91CF9119
:100C60000C94990580620E9499058BE496E40197A3
:100C7000F1F78091860280620E94990583E592E0F7
:100C80000197F1F78091860280620E949905D5CF85
:100C900090918A02691710F06FEF690FE62FF0E06C
:100CA000E958FD4F9489890F80680C94990541E0BB
:100CB0000E94460581E090E008951F920F920FB6C2
:100CC0000F9211242F933F938F939F93AF93BF93D2
:100CD0008091DD019091DE01A091DF01B091E001F2
:100CE0003091CC0123E0230F2D3758F50196A11D3B
:100CF000B11D2093CC018093DD019093DE01A09380
:100D0000DF01B093E0018091CD019091CE01A091DF
:100D1000CF01B091D0010196A11DB11D8093CD01ED
:100D20009093CE01A093CF01B093D001BF91AF912A
:100D30009F918F913F912F910F900FBE0F901F9019
:100D4000189526E8230F0296A11DB11DD2CF1F9240
:100D50000F920FB60F9211242F933F934F935F93EF
:100D60006F937F938F939F93AF93BF93CF93DF93B3
:100D7000EF93FF938091CB01C091CA01D0E087FF30
:100D800024C010928500109284008091CB018F5F67
:100D90008093CB018091CB01082E000C990B8C170E
:100DA0009D0724F48091CB018C30C4F180918400A4
:100DB00090918500049680349C4908F47AC0809113
:100DC000840090918500049676C08091CB01082E16
:100DD000000C990B8C179D07C4F6E091CB018E2F68
:100DE000EE0F990BFC01EE0FFF1FE80FF91FE05B00
:100DF000FD4F808186FFC9CFE091CB018E2FEE0F92
:100E0000990BFC01EE0FFF1FE80FF91FE05BFD4F90
:100E1000808160E08F730E940702B7CF2091840029
:100E200030918500E091CB018E2FEE0F990BFC01E4
:100E3000EE0FFF1FE80FF91FE05BFD4F81819281EC
:100E4000820F931F9093890080938800E091CB01DB
:100E50008E2FEE0F990BFC01EE0FFF1FE80FF91F0D
:100E6000E05BFD4F808186FF11C0E091CB018E2FAA
:100E7000EE0F990BFC01EE0FFF1FE80FF91FE05B6F
:100E8000FD4F808161E08F730E940702FF91EF9117
:100E9000DF91CF91BF91AF919F918F917F916F9192
:100EA0005F914F913F912F910F900FBE0F901F9028
:100EB000189580E49CE990938900809388008FEFD7
:100EC0008093CB01E3CFCF93DF93CDB7DEB76497A9
:100ED0000FB6F894DEBF0FBECDBF789484B58260A4
:100EE00084BD84B5816084BD85B5826085BD85B5CE
:100EF000816085BD80916E00816080936E0010924C
:100F000081008091810082608093810080918100C6
:100F10008160809381008091800081608093800057
:100F20008091B10084608093B1008091B0008160B5
:100F30008093B00080917A00846080937A008091E1
:100F40007A00826080937A0080917A008160809339
:100F50007A0080917A00806880937A001092C100B4
:100F600061E08CE00E94390261E089E00E94390270
:100F700061E088E00E94390282E00E94A7058FE2CA
:100F800091E00E94F60462E080E00E9448068FE350
:100F900091E00E94F60460ED77E080E090E00E942E
:100FA000F5030E949F050E9439040E94870468EEA1
:100FB00073E080E090E00E94F50361E390E080E060
:100FC0000E940F0B62E381E090E00E940F0B63E34D
:100FD00082E090E00E940F0B90E080E00E94070BFF
:100FE0008093D80181E090E00E94070B8093D901A3
:100FF00082E090E00E94070B8093DA0161E08BE0D1
:101000000E9439026E0183E1C80ED11C40E0442EDB
:1010100040E0542E0E949F0581E591E00E94F60475
:1010200064E670E080E090E00E94F5030E9479029F
:10103000F82E8E010F5F1F4F3801F80111821082C8
:10104000138212821582148261E070E090E080E0E9
:101050000E94EE0CF801009709F437C29183808357
:1010600013821282FC011082F801158214826FEA49
:1010700071E00E94B40D0A5F1F4FC016D106E9F659
:1010800061E08CE00E940702FF2009F40AC20E947E
:101090009F0581E591E00E94F6040091DB0110912B
:1010A000DC0162E0802F0E94480641E06F2D87E757
:1010B00092E00E94460564EF71E080E090E00E94BB
:1010C000F503FAE2FF1266C00E949F0580E691E0F8
:1010D0000E94F6041092DC011092DB010E9487044A
:1010E0000E949F058091DB019091DC01039709F03C
:1010F000D8C18091D6019091D701181619060CF02D
:1011000036C18091D4019091D50101969093D5017B
:101110008093D4011092D7011092D6011092DC0175
:101120001092DB010E949F0580EB91E00E94F60483
:1011300062E085E00E94480683E891E00E94F604A0
:1011400068EE73E080E090E00E94F5030E9487045F
:101150008091D4019091D501039709F0A2C110921A
:10116000D5011092D40161E08BE00E943902E9EBD5
:10117000F0E0E491E33009F476C108F048C1E130D1
:1011800009F458C1E23009F468C161E08BE00E94C3
:10119000070255C183E2F8127DC01092DC01109263
:1011A000DB010E949F050E949F058CE691E00E9452
:1011B000F60461E080E00E94480601ED11E0E1E004
:1011C000043D1E0771F00E9479028823C1F3F801E3
:1011D00081938F0141E0682F87E792E00E944605E6
:1011E000EECF64EF71E080E090E00E94F50343E011
:1011F00050E068ED71E081ED91E00E94BB0D8C0143
:10120000892BF9F00E949F058DE791E00E94F6047A
:1012100061E080E00E9448068CE891E00E94F604BC
:1012200068EE73E080E090E00E94F5030E949F0565
:1012300081E591E00E94F60461E080E00E944806AA
:1012400051CF0E949F0586E991E00E94F60461E07B
:1012500080E00E94480638EDE32E31E0F32E0330A3
:101260001105A9F00E947902B82E8823C1F3F70175
:1012700081937F0141E0682F87E792E00E94460555
:101280006B2DC8010E940F0B0F5F1F4FE8CF83EA41
:1012900091E0C4CFF801E852FE4F8081F81257C0A8
:1012A000FB8A1C8AF60101900020E9F731978F0133
:1012B0000C191D09B8016F5F7F4F90E080E00E941C
:1012C000EE0C7C01009779F1FC011082B6010E94BE
:1012D000B40DA090DB01B090DC0186E08A9D400156
:1012E0008B9D900C1124860C971CF40180819181B8
:1012F0000097F1F0E114F104C9F022813381201745
:101300003107A0F0B7010E94B40DF40115830483E6
:10131000C7010E94650CFFEFAF1ABF0AB092DC0153
:10132000A092DB01DFCE10E000E0D3CF0E94650C7D
:1013300086E08A9DF0018B9DF00D1124E60DF71DCE
:10134000F182E0821383028315830483E4CF8091CA
:10135000D6019091D70101969093D7018093D60141
:101360000F5F1F4F1093DC010093DB01BBCE892B75
:1013700009F0EECE1092DC011092DB010E949F0575
:1013800083E891E00E94F60462E086E00E9448064D
:1013900086EB91E00E94F60460ED77E080E090E05B
:1013A0000E94F5030E949F058FEB91E00E94F604D6
:1013B00060ED77E080E090E00E94F50360E089E076
:1013C0000E94070261E088E00E94070268EE73E075
:1013D00080E090E00E94F5030E9439048AE590E0E5
:1013E0000E948C0068EE73E080E090E00E94F503BC
:1013F000E09174028E2F90E0FC01EE0FFF1FE80FCA
:10140000F91FE05BFD4F80818F7B8083A1CEE730A9
:10141000B1F1E830E9F1E43009F0B7CE8091800015
:1014200080628093800088EC90E090938B008093A2
:101430008A0005C084B5806884BD88EC87BD68EEED
:1014400073E080E090E00E94F50388E10E94990536
:1014500068EC70E080E090E0F6CF84B5806284BDF7
:1014600088EC88BDECCF80918000806880938000FC
:1014700088EC90E09093890080938800E0CF809181
:10148000B00080688093B00088EC8093B300D7CF21
:101490008091B00080628093B00088EC8093B400AB
:1014A000CECF860106501109F80180819181009705
:1014B00011F00E94650C60167106A1F741145104E9
:1014C00009F4A8CD0E940000A5CD808191810097EC
:1014D00011F00E94650CF8011182108215821482AD
:1014E00013821282C8CDCF9310927A0210927902A1
:1014F00087E291E090937802809377028EE0809368
:101500007B02CFEFC0937C028FE080937D0280E16D
:1015100080937E0281E180937F0282E1809380024A
:1015200083E18093810210928202109283021092D2
:101530008402109285021092860281E00E94A70523
:101540008091CA018C3008F05FC091E0980F9093B1
:10155000CA018093740290E0FC01EE0FFF1FE80FB8
:10156000F91FE05BFD4F88EB9BE092838183109233
:10157000E3011092E7011092E6011092E8018DE17B
:1015800091E09093E2018093E101EDEFF1E01082B0
:10159000148213821582369682E0E933F807B9F790
:1015A00083E091E0909344028093430280E091E0D5
:1015B000909346028093450284E08093470283E043
:1015C0008093480287E091E0909342028093410229
:1015D0008AE090E090934A028093490284EF91E080
:1015E00090934C0280934B0210924F0210924E0245
:1015F00010923D0210923E0210923F021092400261
:1016000010924D02CF910895C0937402B0CFF99912
:10161000FECF92BD81BDF89A992780B50895262FF7
:10162000F999FECF1FBA92BD81BD20BD0FB6F894C7
:10163000FA9AF99A0FBE01960895052E97FB1EF4AB
:1016400000940E94340B57FD07D00E94860B07FCC4
:1016500003D04EF40C94340B509540953095219561
:101660003F4F4F4F5F4F08959095809570956195CE
:101670007F4F8F4F9F4F08950E94A80BA59F900DFD
:10168000B49F900DA49F800D911D11240895B7FF64
:101690000C943C0B0E943C0B821B930B08952F92E1
:1016A0003F924F925F926F927F928F929F92AF92F2
:1016B000BF92CF92DF92EF92FF920F931F93CF933F
:1016C000DF93CDB7DEB7CA1BDB0B0FB6F894DEBFD6
:1016D0000FBECDBF09942A88398848885F846E84FC
:1016E0007D848C849B84AA84B984C884DF80EE8046
:1016F000FD800C811B81AA81B981CE0FD11D0FB64F
:10170000F894DEBF0FBECDBFED010895A1E21A2E01
:10171000AA1BBB1BFD010DC0AA1FBB1FEE1FFF1F95
:10172000A217B307E407F50720F0A21BB30BE40BE5
:10173000F50B661F771F881F991F1A9469F760952C
:101740007095809590959B01AC01BD01CF010895E6
:10175000A29FB001B39FC001A39F700D811D1124F2
:10176000911DB29F700D811D1124911D0895991B2B
:1017700079E004C0991F961708F0961B881F7A9588
:10178000C9F780950895EE0FFF1F0590F491E02DA5
:1017900009940F931F93CF93DF938230910510F438
:1017A00082E090E0E0919102F091920230E020E03E
:1017B000B0E0A0E0309799F42115310509F44AC052
:1017C000281B390B24303105D8F58A819B8161159E
:1017D000710589F1FB0193838283FE0111C0408171
:1017E00051810281138148175907E0F048175907C2
:1017F00099F4109761F012960C93129713961C931C
:101800003296CF01DF91CF911F910F9108950093F0
:10181000910210939202F4CF2115310551F0421735
:10182000530738F0A901DB019A01BD01DF01F8017E
:10183000C1CFEF01F9CF9093920280939102CDCF67
:10184000FE01E20FF31F81939193225031093983F6
:101850002883D7CF20918F0230919002232B41F41F
:1018600020911501309116013093900220938F0240
:1018700020911301309114012115310541F42DB748
:101880003EB74091170150911801241B350BE09190
:101890008F02F0919002E217F307A0F42E1B3F0B8A
:1018A0002817390778F0AC014E5F5F4F24173507D2
:1018B00048F04E0F5F1F5093900240938F02819328
:1018C00091939FCFF0E0E0E09CCFCF93DF93009720
:1018D000E9F0FC01329713821282A0919102B0913B
:1018E0009202ED0130E020E01097A1F420813181D7
:1018F000820F931F20918F02309190022817390791
:1019000009F061C0F0939002E0938F02DF91CF91D4
:101910000895EA01CE17DF07E8F54A815B819E0151
:1019200041155105B1F7E901FB83EA8349915991CA
:10193000C40FD51FEC17FD0761F4808191810296D9
:10194000840F951FE90199838883828193819B830A
:101950008A83F0E0E0E012968D919C9113970097B6
:10196000B9F52D913C911197CD010296820F931FED
:1019700020918F02309190022817390739F630975D
:1019800051F51092920210929102B0939002A0939E
:101990008F02BCCFD383C28340815181840F951FB6
:1019A000C817D90761F44E5F5F4F88819981480F4E
:1019B000591F518340838A819B81938382832115A0
:1019C000310509F0B0CFF0939202E09391029ECFDF
:1019D000FD01DC01C0CF13821282D7CFB0E0A0E0BE
:1019E000E4EFFCE00C94510B8C01009751F4CB0117
:1019F0000E94C90B8C01C801CDB7DEB7E0E10C94A1
:101A00006D0BFC01E60FF71F9C0122503109E21714
:101A1000F30708F49DC0D901CD91DC911197C61749
:101A2000D70798F0C530D10530F3CE01049786175B
:101A3000970708F3C61BD70B2297C193D1936D93D9
:101A40007C93CF010E94650CD6CF5B01AC1ABD0A16
:101A50004C018C0E9D1EA0919102B0919202512CCE
:101A6000412CF12CE12C109731F580918F0290914F
:101A700090028815990509F05CC04616570608F0D3
:101A800058C08091130190911401009741F48DB7D3
:101A90009EB74091170150911801841B950BE817D0
:101AA000F90708F055C0F0939002E0938F02F90116
:101AB00071836083A0CF8D919C91119712966C9049
:101AC000129713967C901397A815B90559F56C01D8
:101AD00042E0C40ED11CCA14DB0420F1AC014A1947
:101AE0005B09DA011296159780F062827382518346
:101AF0004083D9016D937C93E114F10471F0D70117
:101B00001396FC93EE93129776CF22968C0F9D1F1F
:101B1000F90191838083F301EFCFF0939202E09378
:101B2000910269CF4816590608F42C017D01D301B2
:101B30009ACFCB010E94C90B7C01009749F0AE01FE
:101B4000B8010E94AB0DC8010E94650C870153CFFC
:101B500010E000E050CFFB01DC0102C001900D92CB
:101B600041505040D8F70895FB01DC0101900D92DF
:101B70000020E1F70895FB01DC014150504030F0B6
:101B80008D910190801919F40020B9F7881B990BE9
:061B90000895F894FFCF58
:101B96000506070102030431323334353637383946
:101BA6002A302300009302800000000000750235F1
:101BB60002040200000000570685018404840148DF
:101BC6004F4D45204155544F4D4154494F4E0042CB
:101BD6004153454420454E455247594D455445527B
:101BE60000454E5445522050415353574F524400DE
:101BF600444F4F52204C4F434B454400435552529D
:101C0600454E542050415353574F52440057524F5C
:101C16004E472050415353574F5244005452592077
:101C2600414741494E004E45572050415353574F67
:101C360052440050415353204348414E47454400C7
:101C460057524F4E47004143434550544544004484
:0A1C56004F4F52204F50454E000042
:00000001FF
